{
  "contractName": "myNFT",
  "abi": [
    {
      "inputs": [],
      "stateMutability": "nonpayable",
      "type": "constructor"
    },
    {
      "anonymous": false,
      "inputs": [
        {
          "indexed": true,
          "internalType": "address",
          "name": "owner",
          "type": "address"
        },
        {
          "indexed": true,
          "internalType": "address",
          "name": "approved",
          "type": "address"
        },
        {
          "indexed": true,
          "internalType": "uint256",
          "name": "tokenId",
          "type": "uint256"
        }
      ],
      "name": "Approval",
      "type": "event"
    },
    {
      "anonymous": false,
      "inputs": [
        {
          "indexed": true,
          "internalType": "address",
          "name": "owner",
          "type": "address"
        },
        {
          "indexed": true,
          "internalType": "address",
          "name": "operator",
          "type": "address"
        },
        {
          "indexed": false,
          "internalType": "bool",
          "name": "approved",
          "type": "bool"
        }
      ],
      "name": "ApprovalForAll",
      "type": "event"
    },
    {
      "anonymous": false,
      "inputs": [
        {
          "indexed": true,
          "internalType": "address",
          "name": "from",
          "type": "address"
        },
        {
          "indexed": true,
          "internalType": "address",
          "name": "to",
          "type": "address"
        },
        {
          "indexed": true,
          "internalType": "uint256",
          "name": "tokenId",
          "type": "uint256"
        }
      ],
      "name": "Transfer",
      "type": "event"
    },
    {
      "anonymous": false,
      "inputs": [
        {
          "indexed": false,
          "internalType": "uint256",
          "name": "_animalId",
          "type": "uint256"
        }
      ],
      "name": "animalIsDead",
      "type": "event"
    },
    {
      "anonymous": false,
      "inputs": [
        {
          "indexed": false,
          "internalType": "uint256",
          "name": "_tokenId",
          "type": "uint256"
        },
        {
          "indexed": false,
          "internalType": "address",
          "name": "_address",
          "type": "address"
        }
      ],
      "name": "auctionWinner",
      "type": "event"
    },
    {
      "anonymous": false,
      "inputs": [
        {
          "indexed": false,
          "internalType": "uint256",
          "name": "fightId",
          "type": "uint256"
        }
      ],
      "name": "fightAccepted",
      "type": "event"
    },
    {
      "anonymous": false,
      "inputs": [
        {
          "indexed": false,
          "internalType": "uint256",
          "name": "fightId",
          "type": "uint256"
        },
        {
          "indexed": false,
          "internalType": "address",
          "name": "_from",
          "type": "address"
        },
        {
          "indexed": false,
          "internalType": "address",
          "name": "_to",
          "type": "address"
        },
        {
          "indexed": false,
          "internalType": "uint256",
          "name": "_animalId",
          "type": "uint256"
        },
        {
          "indexed": false,
          "internalType": "uint256",
          "name": "_targetId",
          "type": "uint256"
        },
        {
          "indexed": false,
          "internalType": "uint256",
          "name": "_weiBet",
          "type": "uint256"
        }
      ],
      "name": "fightProposed",
      "type": "event"
    },
    {
      "anonymous": false,
      "inputs": [
        {
          "indexed": false,
          "internalType": "uint256",
          "name": "_animalId",
          "type": "uint256"
        }
      ],
      "name": "newAnimalDeclared",
      "type": "event"
    },
    {
      "anonymous": false,
      "inputs": [
        {
          "indexed": false,
          "internalType": "uint256",
          "name": "_tokenId",
          "type": "uint256"
        }
      ],
      "name": "newAuctionCreated",
      "type": "event"
    },
    {
      "anonymous": false,
      "inputs": [
        {
          "indexed": false,
          "internalType": "uint256",
          "name": "_tokenId",
          "type": "uint256"
        },
        {
          "indexed": false,
          "internalType": "address",
          "name": "_address",
          "type": "address"
        }
      ],
      "name": "newBid",
      "type": "event"
    },
    {
      "anonymous": false,
      "inputs": [
        {
          "indexed": false,
          "internalType": "address",
          "name": "_addresse",
          "type": "address"
        }
      ],
      "name": "newBreederRegistred",
      "type": "event"
    },
    {
      "anonymous": false,
      "inputs": [
        {
          "indexed": false,
          "internalType": "uint256",
          "name": "_animalId",
          "type": "uint256"
        }
      ],
      "name": "offspringBorned",
      "type": "event"
    },
    {
      "inputs": [
        {
          "internalType": "uint256",
          "name": "",
          "type": "uint256"
        }
      ],
      "name": "_tokenOwner",
      "outputs": [
        {
          "internalType": "address",
          "name": "",
          "type": "address"
        }
      ],
      "stateMutability": "view",
      "type": "function"
    },
    {
      "inputs": [
        {
          "internalType": "uint256",
          "name": "",
          "type": "uint256"
        }
      ],
      "name": "animalList",
      "outputs": [
        {
          "internalType": "uint256",
          "name": "animalId",
          "type": "uint256"
        },
        {
          "internalType": "string",
          "name": "kindOfAnimal",
          "type": "string"
        },
        {
          "internalType": "string",
          "name": "name",
          "type": "string"
        },
        {
          "internalType": "uint8",
          "name": "age",
          "type": "uint8"
        },
        {
          "internalType": "string",
          "name": "color",
          "type": "string"
        },
        {
          "internalType": "bool",
          "name": "pureRace",
          "type": "bool"
        }
      ],
      "stateMutability": "view",
      "type": "function"
    },
    {
      "inputs": [
        {
          "internalType": "address",
          "name": "to",
          "type": "address"
        },
        {
          "internalType": "uint256",
          "name": "tokenId",
          "type": "uint256"
        }
      ],
      "name": "approve",
      "outputs": [],
      "stateMutability": "nonpayable",
      "type": "function"
    },
    {
      "inputs": [
        {
          "internalType": "address",
          "name": "owner",
          "type": "address"
        }
      ],
      "name": "balanceOf",
      "outputs": [
        {
          "internalType": "uint256",
          "name": "",
          "type": "uint256"
        }
      ],
      "stateMutability": "view",
      "type": "function"
    },
    {
      "inputs": [],
      "name": "contractOwner",
      "outputs": [
        {
          "internalType": "address",
          "name": "",
          "type": "address"
        }
      ],
      "stateMutability": "view",
      "type": "function"
    },
    {
      "inputs": [
        {
          "internalType": "uint256",
          "name": "tokenId",
          "type": "uint256"
        }
      ],
      "name": "getApproved",
      "outputs": [
        {
          "internalType": "address",
          "name": "",
          "type": "address"
        }
      ],
      "stateMutability": "view",
      "type": "function"
    },
    {
      "inputs": [
        {
          "internalType": "address",
          "name": "owner",
          "type": "address"
        },
        {
          "internalType": "address",
          "name": "operator",
          "type": "address"
        }
      ],
      "name": "isApprovedForAll",
      "outputs": [
        {
          "internalType": "bool",
          "name": "",
          "type": "bool"
        }
      ],
      "stateMutability": "view",
      "type": "function"
    },
    {
      "inputs": [
        {
          "internalType": "uint256",
          "name": "tokenId",
          "type": "uint256"
        }
      ],
      "name": "ownerOf",
      "outputs": [
        {
          "internalType": "address",
          "name": "",
          "type": "address"
        }
      ],
      "stateMutability": "view",
      "type": "function"
    },
    {
      "inputs": [
        {
          "internalType": "address",
          "name": "from",
          "type": "address"
        },
        {
          "internalType": "address",
          "name": "to",
          "type": "address"
        },
        {
          "internalType": "uint256",
          "name": "tokenId",
          "type": "uint256"
        }
      ],
      "name": "safeTransferFrom",
      "outputs": [],
      "stateMutability": "nonpayable",
      "type": "function"
    },
    {
      "inputs": [
        {
          "internalType": "address",
          "name": "from",
          "type": "address"
        },
        {
          "internalType": "address",
          "name": "to",
          "type": "address"
        },
        {
          "internalType": "uint256",
          "name": "tokenId",
          "type": "uint256"
        },
        {
          "internalType": "bytes",
          "name": "_data",
          "type": "bytes"
        }
      ],
      "name": "safeTransferFrom",
      "outputs": [],
      "stateMutability": "nonpayable",
      "type": "function"
    },
    {
      "inputs": [
        {
          "internalType": "address",
          "name": "operator",
          "type": "address"
        },
        {
          "internalType": "bool",
          "name": "approved",
          "type": "bool"
        }
      ],
      "name": "setApprovalForAll",
      "outputs": [],
      "stateMutability": "nonpayable",
      "type": "function"
    },
    {
      "inputs": [
        {
          "internalType": "bytes4",
          "name": "interfaceId",
          "type": "bytes4"
        }
      ],
      "name": "supportsInterface",
      "outputs": [
        {
          "internalType": "bool",
          "name": "",
          "type": "bool"
        }
      ],
      "stateMutability": "view",
      "type": "function"
    },
    {
      "inputs": [
        {
          "internalType": "address",
          "name": "from",
          "type": "address"
        },
        {
          "internalType": "address",
          "name": "to",
          "type": "address"
        },
        {
          "internalType": "uint256",
          "name": "tokenId",
          "type": "uint256"
        }
      ],
      "name": "transferFrom",
      "outputs": [],
      "stateMutability": "nonpayable",
      "type": "function"
    },
    {
      "inputs": [
        {
          "internalType": "address",
          "name": "to",
          "type": "address"
        }
      ],
      "name": "registerBreeder",
      "outputs": [],
      "stateMutability": "nonpayable",
      "type": "function"
    },
    {
      "inputs": [
        {
          "internalType": "uint256",
          "name": "_animalId",
          "type": "uint256"
        },
        {
          "internalType": "string",
          "name": "_kindOfAnimal",
          "type": "string"
        },
        {
          "internalType": "string",
          "name": "_name",
          "type": "string"
        },
        {
          "internalType": "uint8",
          "name": "_age",
          "type": "uint8"
        },
        {
          "internalType": "string",
          "name": "_color",
          "type": "string"
        },
        {
          "internalType": "bool",
          "name": "_pureRace",
          "type": "bool"
        }
      ],
      "name": "declareAnimal",
      "outputs": [],
      "stateMutability": "nonpayable",
      "type": "function"
    },
    {
      "inputs": [
        {
          "internalType": "uint256",
          "name": "tokenId",
          "type": "uint256"
        }
      ],
      "name": "deadAnimal",
      "outputs": [],
      "stateMutability": "nonpayable",
      "type": "function"
    },
    {
      "inputs": [
        {
          "internalType": "address",
          "name": "_otherAddress",
          "type": "address"
        },
        {
          "internalType": "uint256",
          "name": "_myTokenId",
          "type": "uint256"
        },
        {
          "internalType": "uint256",
          "name": "_otherTokenId",
          "type": "uint256"
        }
      ],
      "name": "allowBirthDeclaration",
      "outputs": [],
      "stateMutability": "nonpayable",
      "type": "function"
    },
    {
      "inputs": [
        {
          "internalType": "address",
          "name": "_otherAddress",
          "type": "address"
        },
        {
          "internalType": "uint256",
          "name": "_myTokenId",
          "type": "uint256"
        },
        {
          "internalType": "uint256",
          "name": "_otherTokenId",
          "type": "uint256"
        },
        {
          "internalType": "uint256",
          "name": "_animalId",
          "type": "uint256"
        },
        {
          "internalType": "string",
          "name": "_kindOfAnimal",
          "type": "string"
        },
        {
          "internalType": "string",
          "name": "_name",
          "type": "string"
        },
        {
          "internalType": "string",
          "name": "_color",
          "type": "string"
        }
      ],
      "name": "breedAnimal",
      "outputs": [],
      "stateMutability": "nonpayable",
      "type": "function"
    },
    {
      "inputs": [
        {
          "internalType": "uint256",
          "name": "_tokenId",
          "type": "uint256"
        },
        {
          "internalType": "uint256",
          "name": "_initialWeiPrice",
          "type": "uint256"
        }
      ],
      "name": "createAuction",
      "outputs": [],
      "stateMutability": "nonpayable",
      "type": "function"
    },
    {
      "inputs": [
        {
          "internalType": "uint256",
          "name": "_tokenId",
          "type": "uint256"
        },
        {
          "internalType": "uint256",
          "name": "_weiPrice",
          "type": "uint256"
        }
      ],
      "name": "bidOnAuction",
      "outputs": [],
      "stateMutability": "nonpayable",
      "type": "function"
    },
    {
      "inputs": [
        {
          "internalType": "address payable",
          "name": "_to",
          "type": "address"
        },
        {
          "internalType": "uint256",
          "name": "_weiPrice",
          "type": "uint256"
        }
      ],
      "name": "transferAmount",
      "outputs": [],
      "stateMutability": "payable",
      "type": "function"
    },
    {
      "inputs": [
        {
          "internalType": "uint256",
          "name": "_tokenId",
          "type": "uint256"
        }
      ],
      "name": "claimAuction",
      "outputs": [],
      "stateMutability": "nonpayable",
      "type": "function"
    },
    {
      "inputs": [
        {
          "internalType": "address",
          "name": "_to",
          "type": "address"
        },
        {
          "internalType": "uint256",
          "name": "_animalId",
          "type": "uint256"
        },
        {
          "internalType": "uint256",
          "name": "_targetId",
          "type": "uint256"
        },
        {
          "internalType": "uint256",
          "name": "_weiPriceBet",
          "type": "uint256"
        }
      ],
      "name": "proposeFight",
      "outputs": [],
      "stateMutability": "payable",
      "type": "function"
    },
    {
      "inputs": [
        {
          "internalType": "uint256",
          "name": "_fightId",
          "type": "uint256"
        }
      ],
      "name": "agreeToFight",
      "outputs": [],
      "stateMutability": "payable",
      "type": "function"
    }
  ],
  "bytecode": "0x608060405260006007556000600c553480156200001b57600080fd5b50620000346301ffc9a760e01b6200009360201b60201c565b6200004c6380ac58cd60e01b6200009360201b60201c565b33600560006101000a81548173ffffffffffffffffffffffffffffffffffffffff021916908373ffffffffffffffffffffffffffffffffffffffff1602179055506200019c565b63ffffffff60e01b817bffffffffffffffffffffffffffffffffffffffffffffffffffffffff1916141562000130576040517f08c379a000000000000000000000000000000000000000000000000000000000815260040180806020018281038252601c8152602001807f4552433136353a20696e76616c696420696e746572666163652069640000000081525060200191505060405180910390fd5b6001600080837bffffffffffffffffffffffffffffffffffffffffffffffffffffffff19167bffffffffffffffffffffffffffffffffffffffffffffffffffffffff1916815260200190815260200160002060006101000a81548160ff02191690831515021790555050565b61412680620001ac6000396000f3fe60806040526004361061014b5760003560e01c80639aafc6c9116100b6578063d2fe356a1161006f578063d2fe356a14610aa5578063d7081e0314610cd9578063d7de837e14610d27578063d9c2a0e614610d55578063e985e9c514610f00578063ec9b6db914610f895761014b565b80639aafc6c9146106465780639f63512014610681578063a22cb465146106c6578063b88d4fde14610723578063bc333c8614610835578063ce606ee014610a4e5761014b565b806342842e0e1161010857806342842e0e146103ba578063476fd474146104355780636352211e1461048657806370a0823114610501578063796db3121461056657806398eec06d146105e15761014b565b80630121683f1461015057806301ffc9a7146101955780630756b9e114610207578063081812fc14610269578063095ea7b3146102e457806323b872dd1461033f575b600080fd5b34801561015c57600080fd5b506101936004803603604081101561017357600080fd5b810190808035906020019092919080359060200190929190505050610fc4565b005b3480156101a157600080fd5b506101ed600480360360208110156101b857600080fd5b8101908080357bffffffffffffffffffffffffffffffffffffffffffffffffffffffff19169060200190929190505050611210565b604051808215151515815260200191505060405180910390f35b6102676004803603608081101561021d57600080fd5b81019080803573ffffffffffffffffffffffffffffffffffffffff169060200190929190803590602001909291908035906020019092919080359060200190929190505050611277565b005b34801561027557600080fd5b506102a26004803603602081101561028c57600080fd5b81019080803590602001909291905050506115e5565b604051808273ffffffffffffffffffffffffffffffffffffffff1673ffffffffffffffffffffffffffffffffffffffff16815260200191505060405180910390f35b3480156102f057600080fd5b5061033d6004803603604081101561030757600080fd5b81019080803573ffffffffffffffffffffffffffffffffffffffff16906020019092919080359060200190929190505050611680565b005b34801561034b57600080fd5b506103b86004803603606081101561036257600080fd5b81019080803573ffffffffffffffffffffffffffffffffffffffff169060200190929190803573ffffffffffffffffffffffffffffffffffffffff169060200190929190803590602001909291905050506117c4565b005b3480156103c657600080fd5b50610433600480360360608110156103dd57600080fd5b81019080803573ffffffffffffffffffffffffffffffffffffffff169060200190929190803573ffffffffffffffffffffffffffffffffffffffff1690602001909291908035906020019092919050505061183a565b005b34801561044157600080fd5b506104846004803603602081101561045857600080fd5b81019080803573ffffffffffffffffffffffffffffffffffffffff16906020019092919050505061185a565b005b34801561049257600080fd5b506104bf600480360360208110156104a957600080fd5b8101908080359060200190929190505050611a33565b604051808273ffffffffffffffffffffffffffffffffffffffff1673ffffffffffffffffffffffffffffffffffffffff16815260200191505060405180910390f35b34801561050d57600080fd5b506105506004803603602081101561052457600080fd5b81019080803573ffffffffffffffffffffffffffffffffffffffff169060200190929190505050611afb565b6040518082815260200191505060405180910390f35b34801561057257600080fd5b5061059f6004803603602081101561058957600080fd5b8101908080359060200190929190505050611bd0565b604051808273ffffffffffffffffffffffffffffffffffffffff1673ffffffffffffffffffffffffffffffffffffffff16815260200191505060405180910390f35b3480156105ed57600080fd5b506106446004803603606081101561060457600080fd5b81019080803573ffffffffffffffffffffffffffffffffffffffff1690602001909291908035906020019092919080359060200190929190505050611c03565b005b34801561065257600080fd5b5061067f6004803603602081101561066957600080fd5b8101908080359060200190929190505050611d82565b005b34801561068d57600080fd5b506106c4600480360360408110156106a457600080fd5b810190808035906020019092919080359060200190929190505050611f4f565b005b3480156106d257600080fd5b50610721600480360360408110156106e957600080fd5b81019080803573ffffffffffffffffffffffffffffffffffffffff1690602001909291908035151590602001909291905050506121a8565b005b34801561072f57600080fd5b506108336004803603608081101561074657600080fd5b81019080803573ffffffffffffffffffffffffffffffffffffffff169060200190929190803573ffffffffffffffffffffffffffffffffffffffff16906020019092919080359060200190929190803590602001906401000000008111156107ad57600080fd5b8201836020820111156107bf57600080fd5b803590602001918460018302840111640100000000831117156107e157600080fd5b91908080601f016020809104026020016040519081016040528093929190818152602001838380828437600081840152601f19601f820116905080830192505050505050509192919290505050612360565b005b34801561084157600080fd5b50610a4c600480360360c081101561085857600080fd5b81019080803590602001909291908035906020019064010000000081111561087f57600080fd5b82018360208201111561089157600080fd5b803590602001918460018302840111640100000000831117156108b357600080fd5b91908080601f016020809104026020016040519081016040528093929190818152602001838380828437600081840152601f19601f8201169050808301925050505050505091929192908035906020019064010000000081111561091657600080fd5b82018360208201111561092857600080fd5b8035906020019184600183028401116401000000008311171561094a57600080fd5b91908080601f016020809104026020016040519081016040528093929190818152602001838380828437600081840152601f19601f820116905080830192505050505050509192919290803560ff169060200190929190803590602001906401000000008111156109ba57600080fd5b8201836020820111156109cc57600080fd5b803590602001918460018302840111640100000000831117156109ee57600080fd5b91908080601f016020809104026020016040519081016040528093929190818152602001838380828437600081840152601f19601f8201169050808301925050505050505091929192908035151590602001909291905050506123d8565b005b348015610a5a57600080fd5b50610a636126de565b604051808273ffffffffffffffffffffffffffffffffffffffff1673ffffffffffffffffffffffffffffffffffffffff16815260200191505060405180910390f35b348015610ab157600080fd5b50610cd7600480360360e0811015610ac857600080fd5b81019080803573ffffffffffffffffffffffffffffffffffffffff16906020019092919080359060200190929190803590602001909291908035906020019092919080359060200190640100000000811115610b2357600080fd5b820183602082011115610b3557600080fd5b80359060200191846001830284011164010000000083111715610b5757600080fd5b91908080601f016020809104026020016040519081016040528093929190818152602001838380828437600081840152601f19601f82011690508083019250505050505050919291929080359060200190640100000000811115610bba57600080fd5b820183602082011115610bcc57600080fd5b80359060200191846001830284011164010000000083111715610bee57600080fd5b91908080601f016020809104026020016040519081016040528093929190818152602001838380828437600081840152601f19601f82011690508083019250505050505050919291929080359060200190640100000000811115610c5157600080fd5b820183602082011115610c6357600080fd5b80359060200191846001830284011164010000000083111715610c8557600080fd5b91908080601f016020809104026020016040519081016040528093929190818152602001838380828437600081840152601f19601f820116905080830192505050505050509192919290505050612704565b005b610d2560048036036040811015610cef57600080fd5b81019080803573ffffffffffffffffffffffffffffffffffffffff1690602001909291908035906020019092919050505061287f565b005b610d5360048036036020811015610d3d57600080fd5b81019080803590602001909291905050506128d6565b005b348015610d6157600080fd5b50610d8e60048036036020811015610d7857600080fd5b8101908080359060200190929190505050612ab8565b6040518087815260200180602001806020018660ff1660ff1681526020018060200185151515158152602001848103845289818151815260200191508051906020019080838360005b83811015610df2578082015181840152602081019050610dd7565b50505050905090810190601f168015610e1f5780820380516001836020036101000a031916815260200191505b50848103835288818151815260200191508051906020019080838360005b83811015610e58578082015181840152602081019050610e3d565b50505050905090810190601f168015610e855780820380516001836020036101000a031916815260200191505b50848103825286818151815260200191508051906020019080838360005b83811015610ebe578082015181840152602081019050610ea3565b50505050905090810190601f168015610eeb5780820380516001836020036101000a031916815260200191505b50995050505050505050505060405180910390f35b348015610f0c57600080fd5b50610f6f60048036036040811015610f2357600080fd5b81019080803573ffffffffffffffffffffffffffffffffffffffff169060200190929190803573ffffffffffffffffffffffffffffffffffffffff169060200190929190505050612cd6565b604051808215151515815260200191505060405180910390f35b348015610f9557600080fd5b50610fc260048036036020811015610fac57600080fd5b8101908080359060200190929190505050612d6a565b005b813373ffffffffffffffffffffffffffffffffffffffff166001600083815260200190815260200160002060009054906101000a900473ffffffffffffffffffffffffffffffffffffffff1673ffffffffffffffffffffffffffffffffffffffff161461107c576040517f08c379a000000000000000000000000000000000000000000000000000000000815260040180806020018281038252602f815260200180613f86602f913960400191505060405180910390fd5b611084613c95565b33816000019073ffffffffffffffffffffffffffffffffffffffff16908173ffffffffffffffffffffffffffffffffffffffff168152505083816020018181525050828160400181815250506202a300420181608001818152505060018160a001901515908115158152505080600b600086815260200190815260200160002060008201518160000160006101000a81548173ffffffffffffffffffffffffffffffffffffffff021916908373ffffffffffffffffffffffffffffffffffffffff160217905550602082015181600101556040820151816002015560608201518160030160006101000a81548173ffffffffffffffffffffffffffffffffffffffff021916908373ffffffffffffffffffffffffffffffffffffffff1602179055506080820151816004015560a08201518160050160006101000a81548160ff0219169083151502179055509050507f5044d1a3609547ae6d41ad4dadfb8e9f6598f189de9b5c7b1c789d36d5746f89846040518082815260200191505060405180910390a150505050565b6000806000837bffffffffffffffffffffffffffffffffffffffffffffffffffffffff19167bffffffffffffffffffffffffffffffffffffffffffffffffffffffff1916815260200190815260200160002060009054906101000a900460ff169050919050565b823373ffffffffffffffffffffffffffffffffffffffff166001600083815260200190815260200160002060009054906101000a900473ffffffffffffffffffffffffffffffffffffffff1673ffffffffffffffffffffffffffffffffffffffff161461132f576040517f08c379a000000000000000000000000000000000000000000000000000000000815260040180806020018281038252602f815260200180613f86602f913960400191505060405180910390fd5b81341161133b57600080fd5b600c60008154809291906001019190505550611355613cf9565b600c5481600001818152505033816020019073ffffffffffffffffffffffffffffffffffffffff16908173ffffffffffffffffffffffffffffffffffffffff16815250508481604001818152505085816060019073ffffffffffffffffffffffffffffffffffffffff16908173ffffffffffffffffffffffffffffffffffffffff168152505083816080018181525050828160a001818152505060008160c001901515908115158152505060018160e001901515908115158152505080600d6000836000015181526020019081526020016000206000820151816000015560208201518160010160006101000a81548173ffffffffffffffffffffffffffffffffffffffff021916908373ffffffffffffffffffffffffffffffffffffffff1602179055506040820151816002015560608201518160030160006101000a81548173ffffffffffffffffffffffffffffffffffffffff021916908373ffffffffffffffffffffffffffffffffffffffff1602179055506080820151816004015560a0820151816005015560c08201518160060160006101000a81548160ff02191690831515021790555060e08201518160060160016101000a81548160ff0219169083151502179055509050507f2ec105b306dc55acf3f6c48af9fc18c831499e14bbf7430a0c35ab543699973181600001513388888888604051808781526020018673ffffffffffffffffffffffffffffffffffffffff1673ffffffffffffffffffffffffffffffffffffffff1681526020018573ffffffffffffffffffffffffffffffffffffffff1673ffffffffffffffffffffffffffffffffffffffff168152602001848152602001838152602001828152602001965050505050505060405180910390a1505050505050565b60006115f082612e67565b611645576040517f08c379a000000000000000000000000000000000000000000000000000000000815260040180806020018281038252602c815260200180613fdb602c913960400191505060405180910390fd5b6002600083815260200190815260200160002060009054906101000a900473ffffffffffffffffffffffffffffffffffffffff169050919050565b600061168b82611a33565b90508073ffffffffffffffffffffffffffffffffffffffff168373ffffffffffffffffffffffffffffffffffffffff161415611712576040517f08c379a00000000000000000000000000000000000000000000000000000000081526004018080602001828103825260218152602001806140306021913960400191505060405180910390fd5b8073ffffffffffffffffffffffffffffffffffffffff16611731612ed9565b73ffffffffffffffffffffffffffffffffffffffff161480611760575061175f8161175a612ed9565b612cd6565b5b6117b5576040517f08c379a0000000000000000000000000000000000000000000000000000000008152600401808060200182810382526038815260200180613efb6038913960400191505060405180910390fd5b6117bf8383612ee1565b505050565b6117d56117cf612ed9565b82612f9a565b61182a576040517f08c379a00000000000000000000000000000000000000000000000000000000081526004018080602001828103825260318152602001806140516031913960400191505060405180910390fd5b61183583838361308e565b505050565b61185583838360405180602001604052806000815250612360565b505050565b600560009054906101000a900473ffffffffffffffffffffffffffffffffffffffff1673ffffffffffffffffffffffffffffffffffffffff163373ffffffffffffffffffffffffffffffffffffffff161461191d576040517f08c379a000000000000000000000000000000000000000000000000000000000815260040180806020018281038252601e8152602001807f596f7520617265206e6f742074686520636f6e7472616374206f776e6572000081525060200191505060405180910390fd5b6001600860008373ffffffffffffffffffffffffffffffffffffffff1673ffffffffffffffffffffffffffffffffffffffff16815260200190815260200160002060006101000a81548160ff0219169083151502179055506001600660008373ffffffffffffffffffffffffffffffffffffffff1673ffffffffffffffffffffffffffffffffffffffff16815260200190815260200160002060006101000a81548160ff0219169083151502179055507f9323e697dd2654cf793d6a429b2e7a02fd39714accde359fee4edd1b328eb7db81604051808273ffffffffffffffffffffffffffffffffffffffff1673ffffffffffffffffffffffffffffffffffffffff16815260200191505060405180910390a150565b6000806001600084815260200190815260200160002060009054906101000a900473ffffffffffffffffffffffffffffffffffffffff169050600073ffffffffffffffffffffffffffffffffffffffff168173ffffffffffffffffffffffffffffffffffffffff161415611af2576040517f08c379a0000000000000000000000000000000000000000000000000000000008152600401808060200182810382526029815260200180613f5d6029913960400191505060405180910390fd5b80915050919050565b60008073ffffffffffffffffffffffffffffffffffffffff168273ffffffffffffffffffffffffffffffffffffffff161415611b82576040517f08c379a000000000000000000000000000000000000000000000000000000000815260040180806020018281038252602a815260200180613f33602a913960400191505060405180910390fd5b611bc9600360008473ffffffffffffffffffffffffffffffffffffffff1673ffffffffffffffffffffffffffffffffffffffff1681526020019081526020016000206132f6565b9050919050565b60016020528060005260406000206000915054906101000a900473ffffffffffffffffffffffffffffffffffffffff1681565b600560009054906101000a900473ffffffffffffffffffffffffffffffffffffffff1673ffffffffffffffffffffffffffffffffffffffff163373ffffffffffffffffffffffffffffffffffffffff1614611cc6576040517f08c379a000000000000000000000000000000000000000000000000000000000815260040180806020018281038252601e8152602001807f596f7520617265206e6f742074686520636f6e7472616374206f776e6572000081525060200191505060405180910390fd5b6001600a60003373ffffffffffffffffffffffffffffffffffffffff1673ffffffffffffffffffffffffffffffffffffffff16815260200190815260200160002060008573ffffffffffffffffffffffffffffffffffffffff1673ffffffffffffffffffffffffffffffffffffffff1681526020019081526020016000206000848152602001908152602001600020600083815260200190815260200160002060006101000a81548160ff021916908315150217905550505050565b80338073ffffffffffffffffffffffffffffffffffffffff16600b600084815260200190815260200160002060030160009054906101000a900473ffffffffffffffffffffffffffffffffffffffff1673ffffffffffffffffffffffffffffffffffffffff1614611e3e576040517f08c379a0000000000000000000000000000000000000000000000000000000008152600401808060200182810382526026815260200180613fb56026913960400191505060405180910390fd5b611e483384611680565b611e9e600b600085815260200190815260200160002060000160009054906101000a900473ffffffffffffffffffffffffffffffffffffffff16600b60008681526020019081526020016000206002015461287f565b611edf600b600085815260200190815260200160002060000160009054906101000a900473ffffffffffffffffffffffffffffffffffffffff1633856117c4565b7ff55c595604aa1ef445eb149bc0e687d8915fd99ea9e35732ab7f6e0057f2da3e8333604051808381526020018273ffffffffffffffffffffffffffffffffffffffff1673ffffffffffffffffffffffffffffffffffffffff1681526020019250505060405180910390a1505050565b60011515600b600084815260200190815260200160002060050160009054906101000a900460ff16151514611fec576040517f08c379a00000000000000000000000000000000000000000000000000000000081526004018080602001828103825260198152602001807f4e6f2061756374696f6e20666f72207468697320746f6b656e0000000000000081525060200191505060405180910390fd5b600b60008381526020019081526020016000206004015442101561205b576040517f08c379a000000000000000000000000000000000000000000000000000000000815260040180806020018281038252602a815260200180613e81602a913960400191505060405180910390fd5b600b60008381526020019081526020016000206002015481116120c9576040517f08c379a00000000000000000000000000000000000000000000000000000000081526004018080602001828103825260218152602001806140d06021913960400191505060405180910390fd5b80600b60008481526020019081526020016000206002018190555033600b600084815260200190815260200160002060030160006101000a81548173ffffffffffffffffffffffffffffffffffffffff021916908373ffffffffffffffffffffffffffffffffffffffff1602179055507fb7d1f8cff4df65fbeb952c3bcd123546ce38217d1ad4a64ca4097c981d5dd0128233604051808381526020018273ffffffffffffffffffffffffffffffffffffffff1673ffffffffffffffffffffffffffffffffffffffff1681526020019250505060405180910390a15050565b6121b0612ed9565b73ffffffffffffffffffffffffffffffffffffffff168273ffffffffffffffffffffffffffffffffffffffff161415612251576040517f08c379a00000000000000000000000000000000000000000000000000000000081526004018080602001828103825260198152602001807f4552433732313a20617070726f766520746f2063616c6c65720000000000000081525060200191505060405180910390fd5b806004600061225e612ed9565b73ffffffffffffffffffffffffffffffffffffffff1673ffffffffffffffffffffffffffffffffffffffff16815260200190815260200160002060008473ffffffffffffffffffffffffffffffffffffffff1673ffffffffffffffffffffffffffffffffffffffff16815260200190815260200160002060006101000a81548160ff0219169083151502179055508173ffffffffffffffffffffffffffffffffffffffff1661230b612ed9565b73ffffffffffffffffffffffffffffffffffffffff167f17307eab39ab6107e8899845ad3d59bd9653f200f220920489ca2b5937696c3183604051808215151515815260200191505060405180910390a35050565b61237161236b612ed9565b83612f9a565b6123c6576040517f08c379a00000000000000000000000000000000000000000000000000000000081526004018080602001828103825260318152602001806140516031913960400191505060405180910390fd5b6123d284848484613304565b50505050565b3360011515600860008373ffffffffffffffffffffffffffffffffffffffff1673ffffffffffffffffffffffffffffffffffffffff16815260200190815260200160002060009054906101000a900460ff1615151461249f576040517f08c379a000000000000000000000000000000000000000000000000000000000815260040180806020018281038252601c8152602001807f546869732061646472657373206973206e6f7420616c6c6f7765642e0000000081525060200191505060405180910390fd5b86600015156124ad82612e67565b151514612522576040517f08c379a00000000000000000000000000000000000000000000000000000000081526004018080602001828103825260188152602001807f546f6b656e20496420616c7265616479206578697374732e000000000000000081525060200191505060405180910390fd5b60076000815480929190600101919050555061253c613d6e565b8881600001818152505087816020018190525086816040018190525085816060019060ff16908160ff1681525050848160800181905250838160a001901515908115158152505080600960008b81526020019081526020016000206000820151816000015560208201518160010190805190602001906125bd929190613da9565b5060408201518160020190805190602001906125da929190613da9565b5060608201518160030160006101000a81548160ff021916908360ff1602179055506080820151816004019080519060200190612618929190613da9565b5060a08201518160050160006101000a81548160ff02191690831515021790555090505033600160008360000151815260200190815260200160002060006101000a81548173ffffffffffffffffffffffffffffffffffffffff021916908373ffffffffffffffffffffffffffffffffffffffff16021790555061269c338a613376565b7fb308851434b16977c80c6dfca697a0e4adabc12d22eeafbd50ada4ce7e28fa84896040518082815260200191505060405180910390a1505050505050505050565b600560009054906101000a900473ffffffffffffffffffffffffffffffffffffffff1681565b86868660011515600a60003373ffffffffffffffffffffffffffffffffffffffff1673ffffffffffffffffffffffffffffffffffffffff16815260200190815260200160002060008573ffffffffffffffffffffffffffffffffffffffff1673ffffffffffffffffffffffffffffffffffffffff1681526020019081526020016000206000848152602001908152602001600020600083815260200190815260200160002060009054906101000a900460ff1615151461282c576040517f08c379a00000000000000000000000000000000000000000000000000000000081526004018080602001828103825260148152602001807f596f7520617265206e6f7420616c6c6f7765642e00000000000000000000000081525060200191505060405180910390fd5b61283c87878760008860006123d8565b7f8ed5e5caddf7483e8aebc8573ab96ce411fab7360917bc1107f481caaf450134876040518082815260200191505060405180910390a150505050505050505050565b80341161288b57600080fd5b8173ffffffffffffffffffffffffffffffffffffffff166108fc349081150290604051600060405180830381858888f193505050501580156128d1573d6000803e3d6000fd5b505050565b60011515600d600083815260200190815260200160002060060160019054906101000a900460ff16151514612973576040517f08c379a00000000000000000000000000000000000000000000000000000000081526004018080602001828103825260158152602001807f66696768744964206e6f74206578697374696e672e000000000000000000000081525060200191505060405180910390fd5b3373ffffffffffffffffffffffffffffffffffffffff16600d600083815260200190815260200160002060030160009054906101000a900473ffffffffffffffffffffffffffffffffffffffff1673ffffffffffffffffffffffffffffffffffffffff1614612a2d576040517f08c379a00000000000000000000000000000000000000000000000000000000081526004018080602001828103825260298152602001806140826029913960400191505060405180910390fd5b600d6000828152602001908152602001600020600501543411612a4f57600080fd5b6001600d600083815260200190815260200160002060060160006101000a81548160ff0219169083151502179055507f3079675dee2e83e39cbec68210a7b093e7aab3988ad7e3218ec2c1efd8e6ddd1816040518082815260200191505060405180910390a150565b6009602052806000526040600020600091509050806000015490806001018054600181600116156101000203166002900480601f016020809104026020016040519081016040528092919081815260200182805460018160011615610100020316600290048015612b6a5780601f10612b3f57610100808354040283529160200191612b6a565b820191906000526020600020905b815481529060010190602001808311612b4d57829003601f168201915b505050505090806002018054600181600116156101000203166002900480601f016020809104026020016040519081016040528092919081815260200182805460018160011615610100020316600290048015612c085780601f10612bdd57610100808354040283529160200191612c08565b820191906000526020600020905b815481529060010190602001808311612beb57829003601f168201915b5050505050908060030160009054906101000a900460ff1690806004018054600181600116156101000203166002900480601f016020809104026020016040519081016040528092919081815260200182805460018160011615610100020316600290048015612cb95780601f10612c8e57610100808354040283529160200191612cb9565b820191906000526020600020905b815481529060010190602001808311612c9c57829003601f168201915b5050505050908060050160009054906101000a900460ff16905086565b6000600460008473ffffffffffffffffffffffffffffffffffffffff1673ffffffffffffffffffffffffffffffffffffffff16815260200190815260200160002060008373ffffffffffffffffffffffffffffffffffffffff1673ffffffffffffffffffffffffffffffffffffffff16815260200190815260200160002060009054906101000a900460ff16905092915050565b803373ffffffffffffffffffffffffffffffffffffffff166001600083815260200190815260200160002060009054906101000a900473ffffffffffffffffffffffffffffffffffffffff1673ffffffffffffffffffffffffffffffffffffffff1614612e22576040517f08c379a000000000000000000000000000000000000000000000000000000000815260040180806020018281038252602f815260200180613f86602f913960400191505060405180910390fd5b612e2c3383613394565b7f3598a8bbd83054334113fe66cac9166a17c41f5f00eb5c50a9ef84fc3adf2eb0826040518082815260200191505060405180910390a15050565b6000806001600084815260200190815260200160002060009054906101000a900473ffffffffffffffffffffffffffffffffffffffff169050600073ffffffffffffffffffffffffffffffffffffffff168173ffffffffffffffffffffffffffffffffffffffff161415915050919050565b600033905090565b816002600083815260200190815260200160002060006101000a81548173ffffffffffffffffffffffffffffffffffffffff021916908373ffffffffffffffffffffffffffffffffffffffff160217905550808273ffffffffffffffffffffffffffffffffffffffff16612f5483611a33565b73ffffffffffffffffffffffffffffffffffffffff167f8c5be1e5ebec7d5bd14f71427d1e84f3dd0314c0f7b2291e5b200ac8c7c3b92560405160405180910390a45050565b6000612fa582612e67565b612ffa576040517f08c379a000000000000000000000000000000000000000000000000000000000815260040180806020018281038252602c815260200180613ecf602c913960400191505060405180910390fd5b600061300583611a33565b90508073ffffffffffffffffffffffffffffffffffffffff168473ffffffffffffffffffffffffffffffffffffffff16148061307457508373ffffffffffffffffffffffffffffffffffffffff1661305c846115e5565b73ffffffffffffffffffffffffffffffffffffffff16145b8061308557506130848185612cd6565b5b91505092915050565b8273ffffffffffffffffffffffffffffffffffffffff166130ae82611a33565b73ffffffffffffffffffffffffffffffffffffffff161461311a576040517f08c379a00000000000000000000000000000000000000000000000000000000081526004018080602001828103825260298152602001806140076029913960400191505060405180910390fd5b600073ffffffffffffffffffffffffffffffffffffffff168273ffffffffffffffffffffffffffffffffffffffff1614156131a0576040517f08c379a0000000000000000000000000000000000000000000000000000000008152600401808060200182810382526024815260200180613eab6024913960400191505060405180910390fd5b6131ab838383613531565b6131b6600082612ee1565b6131fd600360008573ffffffffffffffffffffffffffffffffffffffff1673ffffffffffffffffffffffffffffffffffffffff168152602001908152602001600020613536565b613244600360008473ffffffffffffffffffffffffffffffffffffffff1673ffffffffffffffffffffffffffffffffffffffff168152602001908152602001600020613559565b816001600083815260200190815260200160002060006101000a81548173ffffffffffffffffffffffffffffffffffffffff021916908373ffffffffffffffffffffffffffffffffffffffff160217905550808273ffffffffffffffffffffffffffffffffffffffff168473ffffffffffffffffffffffffffffffffffffffff167fddf252ad1be2c89b69c2b068fc378daa952ba7f163c4a11628f55a4df523b3ef60405160405180910390a4505050565b600081600001549050919050565b61330f84848461308e565b61331b8484848461356f565b613370576040517f08c379a0000000000000000000000000000000000000000000000000000000008152600401808060200182810382526032815260200180613e4f6032913960400191505060405180910390fd5b50505050565b6133908282604051806020016040528060008152506138ab565b5050565b8173ffffffffffffffffffffffffffffffffffffffff166133b482611a33565b73ffffffffffffffffffffffffffffffffffffffff1614613420576040517f08c379a00000000000000000000000000000000000000000000000000000000081526004018080602001828103825260258152602001806140ab6025913960400191505060405180910390fd5b61342c82600083613531565b613437600082612ee1565b61347e600360008473ffffffffffffffffffffffffffffffffffffffff1673ffffffffffffffffffffffffffffffffffffffff168152602001908152602001600020613536565b60006001600083815260200190815260200160002060006101000a81548173ffffffffffffffffffffffffffffffffffffffff021916908373ffffffffffffffffffffffffffffffffffffffff16021790555080600073ffffffffffffffffffffffffffffffffffffffff168373ffffffffffffffffffffffffffffffffffffffff167fddf252ad1be2c89b69c2b068fc378daa952ba7f163c4a11628f55a4df523b3ef60405160405180910390a45050565b505050565b61354e6001826000015461391c90919063ffffffff16565b816000018190555050565b6001816000016000828254019250508190555050565b60006135908473ffffffffffffffffffffffffffffffffffffffff16613966565b61359d57600190506138a3565b600060608573ffffffffffffffffffffffffffffffffffffffff168673ffffffffffffffffffffffffffffffffffffffff1663150b7a02905060e01b6135e1612ed9565b898888604051602401808573ffffffffffffffffffffffffffffffffffffffff1673ffffffffffffffffffffffffffffffffffffffff1681526020018473ffffffffffffffffffffffffffffffffffffffff1673ffffffffffffffffffffffffffffffffffffffff16815260200183815260200180602001828103825283818151815260200191508051906020019080838360005b83811015613691578082015181840152602081019050613676565b50505050905090810190601f1680156136be5780820380516001836020036101000a031916815260200191505b5095505050505050604051602081830303815290604052907bffffffffffffffffffffffffffffffffffffffffffffffffffffffff19166020820180517bffffffffffffffffffffffffffffffffffffffffffffffffffffffff83818316178352505050506040518082805190602001908083835b602083106137565780518252602082019150602081019050602083039250613733565b6001836020036101000a0380198251168184511680821785525050505050509050019150506000604051808303816000865af19150503d80600081146137b8576040519150601f19603f3d011682016040523d82523d6000602084013e6137bd565b606091505b50915091508161382b576000815111156137da5780518082602001fd5b6040517f08c379a0000000000000000000000000000000000000000000000000000000008152600401808060200182810382526032815260200180613e4f6032913960400191505060405180910390fd5b600081806020019051602081101561384257600080fd5b8101908080519060200190929190505050905063150b7a0260e01b7bffffffffffffffffffffffffffffffffffffffffffffffffffffffff1916817bffffffffffffffffffffffffffffffffffffffffffffffffffffffff19161493505050505b949350505050565b6138b583836139b1565b6138c2600084848461356f565b613917576040517f08c379a0000000000000000000000000000000000000000000000000000000008152600401808060200182810382526032815260200180613e4f6032913960400191505060405180910390fd5b505050565b600061395e83836040518060400160405280601e81526020017f536166654d6174683a207375627472616374696f6e206f766572666c6f770000815250613bd5565b905092915050565b60008060007fc5d2460186f7233c927e7db2dcc703c0e500b653ca82273b7bfad8045d85a47060001b9050833f91508082141580156139a857506000801b8214155b92505050919050565b600073ffffffffffffffffffffffffffffffffffffffff168273ffffffffffffffffffffffffffffffffffffffff161415613a54576040517f08c379a00000000000000000000000000000000000000000000000000000000081526004018080602001828103825260208152602001807f4552433732313a206d696e7420746f20746865207a65726f206164647265737381525060200191505060405180910390fd5b613a5d81612e67565b15613ad0576040517f08c379a000000000000000000000000000000000000000000000000000000000815260040180806020018281038252601c8152602001807f4552433732313a20746f6b656e20616c7265616479206d696e7465640000000081525060200191505060405180910390fd5b613adc60008383613531565b816001600083815260200190815260200160002060006101000a81548173ffffffffffffffffffffffffffffffffffffffff021916908373ffffffffffffffffffffffffffffffffffffffff160217905550613b75600360008473ffffffffffffffffffffffffffffffffffffffff1673ffffffffffffffffffffffffffffffffffffffff168152602001908152602001600020613559565b808273ffffffffffffffffffffffffffffffffffffffff16600073ffffffffffffffffffffffffffffffffffffffff167fddf252ad1be2c89b69c2b068fc378daa952ba7f163c4a11628f55a4df523b3ef60405160405180910390a45050565b6000838311158290613c82576040517f08c379a00000000000000000000000000000000000000000000000000000000081526004018080602001828103825283818151815260200191508051906020019080838360005b83811015613c47578082015181840152602081019050613c2c565b50505050905090810190601f168015613c745780820380516001836020036101000a031916815260200191505b509250505060405180910390fd5b5060008385039050809150509392505050565b6040518060c00160405280600073ffffffffffffffffffffffffffffffffffffffff1681526020016000815260200160008152602001600073ffffffffffffffffffffffffffffffffffffffff168152602001600081526020016000151581525090565b60405180610100016040528060008152602001600073ffffffffffffffffffffffffffffffffffffffff16815260200160008152602001600073ffffffffffffffffffffffffffffffffffffffff16815260200160008152602001600081526020016000151581526020016000151581525090565b6040518060c00160405280600081526020016060815260200160608152602001600060ff168152602001606081526020016000151581525090565b828054600181600116156101000203166002900490600052602060002090601f016020900481019282601f10613dea57805160ff1916838001178555613e18565b82800160010185558215613e18579182015b82811115613e17578251825591602001919060010190613dfc565b5b509050613e259190613e29565b5090565b613e4b91905b80821115613e47576000816000905550600101613e2f565b5090565b9056fe4552433732313a207472616e7366657220746f206e6f6e20455243373231526563656976657220696d706c656d656e74657241756374696f6e20636c6f7365642c207468652074696d65206c696d69742069732065786365656465644552433732313a207472616e7366657220746f20746865207a65726f20616464726573734552433732313a206f70657261746f7220717565727920666f72206e6f6e6578697374656e7420746f6b656e4552433732313a20617070726f76652063616c6c6572206973206e6f74206f776e6572206e6f7220617070726f76656420666f7220616c6c4552433732313a2062616c616e636520717565727920666f7220746865207a65726f20616464726573734552433732313a206f776e657220717565727920666f72206e6f6e6578697374656e7420746f6b656e5468652061646472657373206973206e6f74206d61746863696e6720746f2074686520746f6b656e206f776e65722e596f7520617265206e6f74207468652077696e6e6572206f66207468652061756374696f6e2e4552433732313a20617070726f76656420717565727920666f72206e6f6e6578697374656e7420746f6b656e4552433732313a207472616e73666572206f6620746f6b656e2074686174206973206e6f74206f776e4552433732313a20617070726f76616c20746f2063757272656e74206f776e65724552433732313a207472616e736665722063616c6c6572206973206e6f74206f776e6572206e6f7220617070726f766564596f7520617265206e6f7420616c6c6f77656420746f2061636365707420746869732066696768742e4552433732313a206275726e206f6620746f6b656e2074686174206973206e6f74206f776e5468652061756374696f6e20707269636520697320696e73756666696369656e74a26469706673582212205f567a10be8b3433e76524b766726e0dda57c1d38a4c730d837b30c4889dbdd364736f6c63430006000033",
  "source": "pragma solidity ^0.6.0;\r\n\r\nimport \"./ERC721.sol\";\r\n\r\ncontract myNFT is ERC721 {\r\n\r\n    address public contractOwner;\r\n    mapping (address => bool) registredBreeders;\r\n    uint256 private nbOfAnimals = 0;\r\n\r\n    constructor() public {\r\n        contractOwner = msg.sender;\r\n    }\r\n\r\n    struct animal {\r\n        uint256 animalId;\r\n        string kindOfAnimal;\r\n        string name;\r\n        uint8 age;\r\n        string color;\r\n        bool pureRace;\r\n    }\r\n\r\n    //address[] public breederList;\r\n    mapping (address => bool) breederList;  //put the address in argument and know immediatly if True or False\r\n    //animal[] public animalList;\r\n    mapping (uint => animal) public animalList; //then we can directly access to the animal thanks to his id\r\n\r\n    modifier onlyOwner() {\r\n        require(msg.sender == contractOwner, \"You are not the contract owner\");\r\n        _;\r\n    }\r\n\r\n    event newBreederRegistred(address _addresse);\r\n\r\n    function registerBreeder(address to) public onlyOwner() {\r\n        breederList[to] = true;\r\n        registredBreeders[to] = true;\r\n        emit newBreederRegistred(to);\r\n    }\r\n\r\n    modifier whiteListedBreeder(address _address) {\r\n        require(breederList[_address] == true, \"This address is not allowed.\");\r\n        _;\r\n    }\r\n\r\n    event newAnimalDeclared(uint _animalId);\r\n\r\n    modifier animalIdExists(uint _id){\r\n        require(_exists(_id) == false, \"Token Id already exists.\");\r\n        _;\r\n    }\r\n\r\n    function declareAnimal  (uint256 _animalId,\r\n                            string memory _kindOfAnimal,\r\n                            string memory _name,\r\n                            uint8 _age,\r\n                            string memory _color,\r\n                            bool _pureRace) public whiteListedBreeder(msg.sender) animalIdExists(_animalId) {\r\n\r\n        nbOfAnimals++;  //one more animal\r\n        animal memory _newAnimal;  //new animal\r\n        _newAnimal.animalId = _animalId;  //initialasing animal's parameters\r\n        _newAnimal.kindOfAnimal = _kindOfAnimal;\r\n        _newAnimal.name = _name;\r\n        _newAnimal.age = _age;\r\n        _newAnimal.color = _color;\r\n        _newAnimal.pureRace = _pureRace;\r\n        //complete the mappings\r\n        animalList[_animalId] = _newAnimal;\r\n        _tokenOwner[_newAnimal.animalId] = msg.sender;\r\n        //mint the token\r\n        _safeMint(msg.sender, _animalId);\r\n        //emit event\r\n        emit newAnimalDeclared(_animalId);\r\n    }\r\n\r\n    event animalIsDead(uint _animalId);\r\n\r\n    modifier onlyTokenOwner(uint tokenId) {\r\n        require(_tokenOwner[tokenId] == msg.sender, \"The address is not mathcing to the token owner.\");\r\n        _;\r\n    }\r\n\r\n    //the one who want to declare is animal dead has to be the owner of this animal\r\n    function deadAnimal(uint tokenId) public onlyTokenOwner(tokenId){\r\n        _burn(msg.sender, tokenId);\r\n        emit animalIsDead(tokenId);\r\n    }\r\n\r\n    //need first to approve an address to declare the birth of an offspring\r\n    //[msg.sender] said that [_address] can declare an offsrping of my [_animalId1] with his/her [_animalId2] (ie = true)\r\n    mapping (address => mapping (address => mapping ( uint => mapping ( uint => bool)))) private _birthApprovals;\r\n\r\n    function allowBirthDeclaration(address _otherAddress, uint _myTokenId, uint _otherTokenId) public onlyOwner(){\r\n        _birthApprovals[msg.sender][_otherAddress][_myTokenId][_otherTokenId] = true;\r\n    }\r\n\r\n    modifier canDeclareBirthOf(address _otherAddress, uint _myTokenId, uint _otherTokenId) {\r\n        require(_birthApprovals[msg.sender][_otherAddress][_myTokenId][_otherTokenId] == true,\"You are not allowed.\");\r\n        _;\r\n    }\r\n\r\n    event offspringBorned(uint _animalId);\r\n\r\n    function breedAnimal(address _otherAddress, uint _myTokenId, uint _otherTokenId,\r\n                            uint256 _animalId,\r\n                            string memory _kindOfAnimal,\r\n                            string memory _name,\r\n                            string memory _color) public\r\n                                                    canDeclareBirthOf( _otherAddress, _myTokenId,  _otherTokenId) {\r\n        //now we can declare the offsrping:\r\n        //the boo pure race & the age are deduce automaticaly\r\n        // bool _pureRace;\r\n        // if (animalList[_myTokenId].kindOfAnimal != animalList[_otherTokenId].kindOfAnimal){\r\n        //     _pureRace = true;\r\n        // }\r\n        // else {_pureRace = false;}\r\n\r\n        declareAnimal(_animalId, _kindOfAnimal, _name,0, _color, false);\r\n        //note that the owner of th offsrping is the one who declare him\r\n        emit offspringBorned(_animalId);\r\n    }\r\n\r\n\r\n    //Auction\r\n    //in solidity: 1 wei == 1 & 1 eth ==1e18\r\n\r\n    struct auction {\r\n        address payable owner;\r\n        uint tokenId;\r\n        uint256 auctionPrice;  //initial price in wei (1 wei = 1e-18 eth)\r\n        address actualAuctioneer;\r\n        uint256 deadline;\r\n        bool exist;\r\n    }\r\n\r\n    mapping (uint => auction) auctionList;\r\n    event newAuctionCreated( uint _tokenId);\r\n\r\n    function createAuction(uint _tokenId, uint _initialWeiPrice) public onlyTokenOwner(_tokenId) {\r\n        auction memory _newAuction;\r\n        _newAuction.owner = msg.sender;\r\n        _newAuction.tokenId = _tokenId;\r\n        _newAuction.auctionPrice = _initialWeiPrice;\r\n        _newAuction.deadline = now + 2*(1 days);\r\n        _newAuction.exist = true;\r\n        auctionList[_tokenId] = _newAuction;\r\n        emit newAuctionCreated(_tokenId);\r\n    }\r\n\r\n    event newBid(uint _tokenId, address _address);\r\n\r\n    function bidOnAuction(uint _tokenId, uint _weiPrice) public {\r\n        require(auctionList[_tokenId].exist == true,\"No auction for this token\");\r\n        require(now >= auctionList[_tokenId].deadline, \"Auction closed, the time limit is exceeded\");\r\n        require(_weiPrice > auctionList[_tokenId].auctionPrice, \"The auction price is insufficient\");\r\n\r\n        //if you still here your bid successed\r\n        auctionList[_tokenId].auctionPrice = _weiPrice;\r\n        auctionList[_tokenId].actualAuctioneer = msg.sender;\r\n        //emit event of new bid\r\n        emit newBid(_tokenId, msg.sender);\r\n    }\r\n\r\n    modifier onlyAuctionWinner(uint _tokenId, address _address){\r\n        require(auctionList[_tokenId].actualAuctioneer == _address, \"You are not the winner of the auction.\");\r\n        _;\r\n    }\r\n\r\n    event auctionWinner(uint _tokenId, address _address);\r\n\r\n    // function pay(address _to, uint _weiPrice) public payable {\r\n    //     if (msg.value <= _weiPrice) {\r\n    //     revert();\r\n    //     }\r\n    //     _to.balance()+=msg.value;\r\n    // }\r\n\r\n    function transferAmount (address payable _to, uint _weiPrice) public payable {\r\n        if (msg.value <= _weiPrice) {\r\n            revert();\r\n        }\r\n        _to.transfer(msg.value);\r\n    }\r\n\r\n    function claimAuction(uint _tokenId) public onlyAuctionWinner(_tokenId, msg.sender) {\r\n        //approve msg.sender to transger the token\r\n        approve(msg.sender,_tokenId);\r\n        //transfer money to the former owner\r\n        transferAmount(auctionList[_tokenId].owner, auctionList[_tokenId].auctionPrice);\r\n        //transfer the ownership of the token to the winner of the auction\r\n        transferFrom(auctionList[_tokenId].owner, msg.sender, _tokenId);\r\n\r\n        emit auctionWinner(_tokenId, msg.sender);\r\n    }\r\n\r\n\r\n    //fight\r\n\r\n    struct fight{\r\n        uint fightId;\r\n        address from;\r\n        uint animalId;\r\n        address to;\r\n        uint targetId;\r\n        uint256 weiPriceBet;\r\n        bool fightAccepted;\r\n        bool exist;\r\n    }\r\n\r\n    uint nbOfFight = 0;\r\n\r\n    mapping (uint => fight) fightList;\r\n\r\n\r\n    event fightProposed(uint fightId, address _from, address _to, uint _animalId, uint _targetId, uint _weiBet);\r\n    event fightAccepted(uint fightId);\r\n\r\n    function proposeFight(address _to, uint _animalId, uint _targetId, uint256 _weiPriceBet) public payable onlyTokenOwner(_animalId) {\r\n        //need to make sure that the money added to the function called is at least the wei amount bet\r\n        if (msg.value <= _weiPriceBet) {\r\n        revert();\r\n        }\r\n        \r\n        nbOfFight++;\r\n        fight memory _newFight;\r\n        _newFight.fightId = nbOfFight;\r\n        _newFight.from = msg.sender;\r\n        _newFight.animalId = _animalId;\r\n        _newFight.to = _to;\r\n        _newFight.targetId = _targetId;\r\n        _newFight.weiPriceBet = _weiPriceBet;\r\n        _newFight.fightAccepted = false;\r\n        _newFight.exist = true;\r\n\r\n        fightList[_newFight.fightId] = _newFight;\r\n\r\n        emit fightProposed(_newFight.fightId, msg.sender,_to,_animalId,_targetId,_weiPriceBet);\r\n    }\r\n\r\n\r\n    function agreeToFight(uint _fightId) public payable {\r\n        //make sure that the fight exist\r\n        require(fightList[_fightId].exist == true, \"fightId not existing.\");\r\n        //make sure that the msg.sender is the correct _to address\r\n        require(fightList[_fightId].to == msg.sender, \"You are not allowed to accept this fight.\");\r\n        //need to make sure that the money added to the function called is at least the wei amount bet\r\n        if (msg.value <= fightList[_fightId].weiPriceBet) {\r\n        revert();\r\n        }\r\n        fightList[_fightId].fightAccepted = true;\r\n        emit fightAccepted(_fightId);\r\n    }\r\n\r\n\r\n}",
  "sourcePath": "C:\\Users\\marti\\Desktop\\ESILV\\FinTech_S9\\Blockchain_Programming\\ERC721\\contracts\\myNFT.sol",
  "compiler": {
    "name": "solc",
    "version": "0.6.0+commit.26b70077.Emscripten.clang"
  },
  "schemaVersion": "3.0.23",
  "updatedAt": "2020-03-09T13:38:44.928Z",
  "devdoc": {
    "methods": {
      "approve(address,uint256)": {
        "details": "Approves another address to transfer the given token ID The zero address indicates there is no approved address. There can only be one approved address per token at a given time. Can only be called by the token owner or an approved operator.",
        "params": {
          "to": "address to be approved for the given token ID",
          "tokenId": "uint256 ID of the token to be approved"
        }
      },
      "balanceOf(address)": {
        "details": "Gets the balance of the specified address.",
        "params": {
          "owner": "address to query the balance of"
        },
        "returns": {
          "_0": "uint256 representing the amount owned by the passed address"
        }
      },
      "getApproved(uint256)": {
        "details": "Gets the approved address for a token ID, or zero if no address set Reverts if the token ID does not exist.",
        "params": {
          "tokenId": "uint256 ID of the token to query the approval of"
        },
        "returns": {
          "_0": "address currently approved for the given token ID"
        }
      },
      "isApprovedForAll(address,address)": {
        "details": "Tells whether an operator is approved by a given owner.",
        "params": {
          "operator": "operator address which you want to query the approval of",
          "owner": "owner address which you want to query the approval of"
        },
        "returns": {
          "_0": "bool whether the given operator is approved by the given owner"
        }
      },
      "ownerOf(uint256)": {
        "details": "Gets the owner of the specified token ID.",
        "params": {
          "tokenId": "uint256 ID of the token to query the owner of"
        },
        "returns": {
          "_0": "address currently marked as the owner of the given token ID"
        }
      },
      "safeTransferFrom(address,address,uint256)": {
        "details": "Safely transfers the ownership of a given token ID to another address If the target address is a contract, it must implement {IERC721Receiver-onERC721Received}, which is called upon a safe transfer, and return the magic value `bytes4(keccak256(\"onERC721Received(address,address,uint256,bytes)\"))`; otherwise, the transfer is reverted. Requires the msg.sender to be the owner, approved, or operator",
        "params": {
          "from": "current owner of the token",
          "to": "address to receive the ownership of the given token ID",
          "tokenId": "uint256 ID of the token to be transferred"
        }
      },
      "safeTransferFrom(address,address,uint256,bytes)": {
        "details": "Safely transfers the ownership of a given token ID to another address If the target address is a contract, it must implement {IERC721Receiver-onERC721Received}, which is called upon a safe transfer, and return the magic value `bytes4(keccak256(\"onERC721Received(address,address,uint256,bytes)\"))`; otherwise, the transfer is reverted. Requires the _msgSender() to be the owner, approved, or operator",
        "params": {
          "_data": "bytes data to send along with a safe transfer check",
          "from": "current owner of the token",
          "to": "address to receive the ownership of the given token ID",
          "tokenId": "uint256 ID of the token to be transferred"
        }
      },
      "setApprovalForAll(address,bool)": {
        "details": "Sets or unsets the approval of a given operator An operator is allowed to transfer all tokens of the sender on their behalf.",
        "params": {
          "approved": "representing the status of the approval to be set",
          "operator": "operator address to set the approval"
        }
      },
      "supportsInterface(bytes4)": {
        "details": "See {IERC165-supportsInterface}.      * Time complexity O(1), guaranteed to always use less than 30 000 gas."
      },
      "transferFrom(address,address,uint256)": {
        "details": "Transfers the ownership of a given token ID to another address. Usage of this method is discouraged, use {safeTransferFrom} whenever possible. Requires the msg.sender to be the owner, approved, or operator.",
        "params": {
          "from": "current owner of the token",
          "to": "address to receive the ownership of the given token ID",
          "tokenId": "uint256 ID of the token to be transferred"
        }
      }
    }
  },
  "userdoc": {
    "methods": {}
  }
}